{
  "_format": "hh-sol-artifact-1",
  "contractName": "Avaxbox",
  "sourceName": "contracts/Avaxbox.sol",
  "abi": [
    {
      "anonymous": false,
      "inputs": [
        {
          "indexed": false,
          "internalType": "uint256",
          "name": "id",
          "type": "uint256"
        },
        {
          "indexed": false,
          "internalType": "uint256",
          "name": "value",
          "type": "uint256"
        },
        {
          "indexed": false,
          "internalType": "uint256",
          "name": "timestamp",
          "type": "uint256"
        },
        {
          "indexed": true,
          "internalType": "address",
          "name": "sender",
          "type": "address"
        },
        {
          "indexed": true,
          "internalType": "address",
          "name": "receiver",
          "type": "address"
        }
      ],
      "name": "NewMessage",
      "type": "event"
    },
    {
      "inputs": [],
      "name": "getNumOfMessages",
      "outputs": [
        {
          "internalType": "uint256",
          "name": "",
          "type": "uint256"
        }
      ],
      "stateMutability": "view",
      "type": "function"
    },
    {
      "inputs": [
        {
          "internalType": "uint256",
          "name": "_startIndex",
          "type": "uint256"
        },
        {
          "internalType": "uint256",
          "name": "_count",
          "type": "uint256"
        }
      ],
      "name": "getOwnMessages",
      "outputs": [
        {
          "components": [
            {
              "internalType": "uint256",
              "name": "id",
              "type": "uint256"
            },
            {
              "internalType": "uint256",
              "name": "valueInWei",
              "type": "uint256"
            },
            {
              "internalType": "uint256",
              "name": "timestamp",
              "type": "uint256"
            },
            {
              "internalType": "string",
              "name": "text",
              "type": "string"
            },
            {
              "internalType": "address",
              "name": "sender",
              "type": "address"
            },
            {
              "internalType": "address payable",
              "name": "receiver",
              "type": "address"
            }
          ],
          "internalType": "struct Avaxbox.Message[]",
          "name": "",
          "type": "tuple[]"
        }
      ],
      "stateMutability": "view",
      "type": "function"
    },
    {
      "inputs": [
        {
          "internalType": "address payable",
          "name": "_receiver",
          "type": "address"
        },
        {
          "internalType": "string",
          "name": "_text",
          "type": "string"
        },
        {
          "internalType": "uint256",
          "name": "_timestamp",
          "type": "uint256"
        }
      ],
      "name": "sendMessage",
      "outputs": [],
      "stateMutability": "payable",
      "type": "function"
    }
  ],
  "bytecode": "0x608060405234801561001057600080fd5b50610e8f806100206000396000f3fe6080604052600436106100345760003560e01c80639f458f5214610039578063db302bc314610064578063e2235c58146100a1575b600080fd5b34801561004557600080fd5b5061004e6100bd565b60405161005b9190610b08565b60405180910390f35b34801561007057600080fd5b5061008b60048036038101906100869190610894565b610103565b6040516100989190610ac6565b60405180910390f35b6100bb60048036038101906100b6919061082d565b6103b0565b005b60008060003373ffffffffffffffffffffffffffffffffffffffff1673ffffffffffffffffffffffffffffffffffffffff16815260200190815260200160002054905090565b606060008267ffffffffffffffff811115610147577f4e487b7100000000000000000000000000000000000000000000000000000000600052604160045260246000fd5b60405190808252806020026020018201604052801561018057816020015b61016d610696565b8152602001906001900390816101655790505b5090505b828410156103a657600160003373ffffffffffffffffffffffffffffffffffffffff1673ffffffffffffffffffffffffffffffffffffffff16815260200190815260200160002060006001866101da9190610c2c565b81526020019081526020016000206040518060c001604052908160008201548152602001600182015481526020016002820154815260200160038201805461022190610d12565b80601f016020809104026020016040519081016040528092919081815260200182805461024d90610d12565b801561029a5780601f1061026f5761010080835404028352916020019161029a565b820191906000526020600020905b81548152906001019060200180831161027d57829003601f168201915b505050505081526020016004820160009054906101000a900473ffffffffffffffffffffffffffffffffffffffff1673ffffffffffffffffffffffffffffffffffffffff1673ffffffffffffffffffffffffffffffffffffffff1681526020016005820160009054906101000a900473ffffffffffffffffffffffffffffffffffffffff1673ffffffffffffffffffffffffffffffffffffffff1673ffffffffffffffffffffffffffffffffffffffff1681525050818581518110610388577f4e487b7100000000000000000000000000000000000000000000000000000000600052603260045260246000fd5b6020026020010181905250838061039e90610d44565b945050610184565b8091505092915050565b600060016000808673ffffffffffffffffffffffffffffffffffffffff1673ffffffffffffffffffffffffffffffffffffffff168152602001908152602001600020546103fd9190610c2c565b90506000600160008673ffffffffffffffffffffffffffffffffffffffff1673ffffffffffffffffffffffffffffffffffffffff168152602001908152602001600020600083815260200190815260200160002090508181600001819055508281600201819055508381600301908051906020019061047d9291906106f8565b50338160040160006101000a81548173ffffffffffffffffffffffffffffffffffffffff021916908373ffffffffffffffffffffffffffffffffffffffff160217905550848160050160006101000a81548173ffffffffffffffffffffffffffffffffffffffff021916908373ffffffffffffffffffffffffffffffffffffffff16021790555060003411156105215734816001018190555061052085346105e5565b5b6000808673ffffffffffffffffffffffffffffffffffffffff1673ffffffffffffffffffffffffffffffffffffffff168152602001908152602001600020600081548092919061057090610d44565b91905055508473ffffffffffffffffffffffffffffffffffffffff163373ffffffffffffffffffffffffffffffffffffffff167fbdd388f4cc5d55b5ba50b6b0d724f2c2a2ba04804c506baf917a6bcc3f47ec1e8434876040516105d693929190610b23565b60405180910390a35050505050565b60008273ffffffffffffffffffffffffffffffffffffffff168260405161060b90610ab1565b60006040518083038185875af1925050503d8060008114610648576040519150601f19603f3d011682016040523d82523d6000602084013e61064d565b606091505b5050905080610691576040517f08c379a000000000000000000000000000000000000000000000000000000000815260040161068890610ae8565b60405180910390fd5b505050565b6040518060c0016040528060008152602001600081526020016000815260200160608152602001600073ffffffffffffffffffffffffffffffffffffffff168152602001600073ffffffffffffffffffffffffffffffffffffffff1681525090565b82805461070490610d12565b90600052602060002090601f016020900481019282610726576000855561076d565b82601f1061073f57805160ff191683800117855561076d565b8280016001018555821561076d579182015b8281111561076c578251825591602001919060010190610751565b5b50905061077a919061077e565b5090565b5b8082111561079757600081600090555060010161077f565b5090565b60006107ae6107a984610b8b565b610b5a565b9050828152602081018484840111156107c657600080fd5b6107d1848285610cd0565b509392505050565b6000813590506107e881610e2b565b92915050565b600082601f8301126107ff57600080fd5b813561080f84826020860161079b565b91505092915050565b60008135905061082781610e42565b92915050565b60008060006060848603121561084257600080fd5b6000610850868287016107d9565b935050602084013567ffffffffffffffff81111561086d57600080fd5b610879868287016107ee565b925050604061088a86828701610818565b9150509250925092565b600080604083850312156108a757600080fd5b60006108b585828601610818565b92505060206108c685828601610818565b9150509250929050565b60006108dc8383610a0a565b905092915050565b6108ed81610c94565b82525050565b6108fc81610c82565b82525050565b600061090d82610bcb565b6109178185610bee565b93508360208202850161092985610bbb565b8060005b85811015610965578484038952815161094685826108d0565b945061095183610be1565b925060208a0199505060018101905061092d565b50829750879550505050505092915050565b600061098282610bd6565b61098c8185610c0a565b935061099c818560208601610cdf565b6109a581610e1a565b840191505092915050565b60006109bd601383610c1b565b91507f4661696c656420746f2073656e642041564158000000000000000000000000006000830152602082019050919050565b60006109fd600083610bff565b9150600082019050919050565b600060c083016000830151610a226000860182610a93565b506020830151610a356020860182610a93565b506040830151610a486040860182610a93565b5060608301518482036060860152610a608282610977565b9150506080830151610a7560808601826108f3565b5060a0830151610a8860a08601826108e4565b508091505092915050565b610a9c81610cc6565b82525050565b610aab81610cc6565b82525050565b6000610abc826109f0565b9150819050919050565b60006020820190508181036000830152610ae08184610902565b905092915050565b60006020820190508181036000830152610b01816109b0565b9050919050565b6000602082019050610b1d6000830184610aa2565b92915050565b6000606082019050610b386000830186610aa2565b610b456020830185610aa2565b610b526040830184610aa2565b949350505050565b6000604051905081810181811067ffffffffffffffff82111715610b8157610b80610deb565b5b8060405250919050565b600067ffffffffffffffff821115610ba657610ba5610deb565b5b601f19601f8301169050602081019050919050565b6000819050602082019050919050565b600081519050919050565b600081519050919050565b6000602082019050919050565b600082825260208201905092915050565b600081905092915050565b600082825260208201905092915050565b600082825260208201905092915050565b6000610c3782610cc6565b9150610c4283610cc6565b9250827fffffffffffffffffffffffffffffffffffffffffffffffffffffffffffffffff03821115610c7757610c76610d8d565b5b828201905092915050565b6000610c8d82610ca6565b9050919050565b6000610c9f82610ca6565b9050919050565b600073ffffffffffffffffffffffffffffffffffffffff82169050919050565b6000819050919050565b82818337600083830152505050565b60005b83811015610cfd578082015181840152602081019050610ce2565b83811115610d0c576000848401525b50505050565b60006002820490506001821680610d2a57607f821691505b60208210811415610d3e57610d3d610dbc565b5b50919050565b6000610d4f82610cc6565b91507fffffffffffffffffffffffffffffffffffffffffffffffffffffffffffffffff821415610d8257610d81610d8d565b5b600182019050919050565b7f4e487b7100000000000000000000000000000000000000000000000000000000600052601160045260246000fd5b7f4e487b7100000000000000000000000000000000000000000000000000000000600052602260045260246000fd5b7f4e487b7100000000000000000000000000000000000000000000000000000000600052604160045260246000fd5b6000601f19601f8301169050919050565b610e3481610c94565b8114610e3f57600080fd5b50565b610e4b81610cc6565b8114610e5657600080fd5b5056fea26469706673582212207c08704b0d2dfa4dcb64f0a8ef7418eacc151513488b5a64bc26737d2d00b95264736f6c63430008000033",
  "linkReferences": {},
  "deployedLinkReferences": {}
}